S0130000694275696C6453706565642E73726563C7
S11300000C946E000C948B000C948B000C948B005D
S11300100C948B000C948B000C948B000C948B0030
S11300200C948B000C948B000C9417010C948B0093
S11300300C948B000C948B000C948B000C948B0010
S11300400C948B000C948B000C948B000C948B0000
S11300500C948B000C948B000C948B000C948B00F0
S11300600C948B000C948B000C948B000C948B00E0
S11300700C948B000C948B000C948B000C948B00D0
S11300800C948B000C948B000C948B000C948B00C0
S11300900C948B000C948B000C948B000C948B00B0
S11300A00C948B000C948B000C948B000C948B00A0
S11300B00C948B0007634236B79BD8A71A3968564D
S11300C018AEBAAB558C1D3CB7CC5763BD6DEDFD76
S11300D0753EF6177231BF000000803F11241FBE29
S11300E0CFEFD8E0DEBFCDBF11E0A0E0B1E0E2EA9F
S11300F0F4E102C005900D92AA33B107D9F721E0CB
S1130100AAE3B1E001C01D92AB35B207E1F70E944A
S113011089020C944F0A0C940000F89484B1826014
S113012084B985B18D7F85B984B1846084B985B182
S11301308B7F85B984B1886084B98AB188608AB9B3
S11301408BB18F778BB984B18E7F84B9E1E8F0E00D
S113015080818E7F808380818D7F80838081846095
S11301608083A0E8B0E08C918E7F8C938C918D7FFE
S11301708C938081877F808380818F7E8083808140
S11301808064808386B3806286BBEFE6F0E0808182
S113019080628083E0EBF0E08081816080838081F5
S11301A082608083A1EBB0E08C91877F8C938C91EB
S11301B08E7F8C938C9182608C938C9184608C93D1
S11301C080818F7780838081806480838081806256
S11301D0808388EC8093B3007894089587E99AE348
S11301E00197F1F700C0000085B1826085B993E002
S11301F09A95F1F7000085B18D7F85B90895A09196
S11302003E01B0913F0120E030ED44E850E00E940F
S1130210210720E038E448EE51E00E940207C901BA
S1130220992324F488279927821B930B08951F92FE
S11302300F920FB60F9211242F933F938F939F9396
S1130240EF93FF938091810086FF0BC0E4E8F0E018
S1130250118210828081918190933D0180933C01B1
S113026031C0809184009091850090933B018093EC
S11302703A0120913A0130913B0180913C019091E7
S11302803D01281739077CF080913A0190913B0198
S113029020913C0130913D01821B930B90933F01CF
S11302A080933E010FC080913A0190913B012091CF
S11302B03C0130913D01821B930B019790933F01C8
S11302C080933E0186B3806286BBE1E8F0E09081D2
S11302D080E489278083FF91EF919F918F913F91D3
S11302E02F910F900FBE0F901F901895ECE7F0E040
S11302F09081907F8F70892B8083EAE7F0E0808182
S11303008064808380917A0086FDFCCF80917800A0
S1130310909179000895F894E4E6F0E080818E7F6E
S11303208083ECE7F0E080818064808380818F7734
S11303308083EAE7F0E0808181608083808182604D
S1130340808380818460808380818F7D8083AEE719
S1130350B0E08C918C938081806880837894089538
S1130360F8948AB180628AB985B5816085BD85B506
S11303708D7F85BD85B5846085BD84B5816084BD70
S113038084B5826084BD85B5886085BD86B380628E
S113039086BB84B58F7784BD84B5806484BD84B501
S11303A0806284BD8FEF87BD78940895CF93DF93E7
S11303B080E00E947601EC01895C91098336910505
S11303C090F46091B30070E080E090E00E943A0500
S11303D020E030E040E450E40E945D040E940905FE
S11303E06093B40026C0CE018556910983369105E9
S11303F0B0F46091B30070E080E090E00E943A05B0
S11304009B01AC010E94EC0320E030E040E450E4A6
S11304100E945D040E9409056093B4000AC0C436BA
S1130420D10528F48091B3008093B40002C01092E7
S1130430B400CE01DF91CF910895EF92FF920F9314
S11304401F93CF93DF930E94FF0090934101809309
S1130450400144971CF40E948B0349C081E00E9430
S113046076017C01FF928F9380E091E09F938F93BC
S113047002E411E01F930F930E946507C8010E94D4
S1130480DE0382E00E947601EC01DF93CF938EE0DD
S113049091E09F938F931F930F930E946507C80168
S11304A00E94DE038DB79EB70C960FB6F8949EBFDC
S11304B00FBE8DBFCA30D10520F09AE0E916F104D1
S11304C010F40E94B203CB30D10538F0CE010E9463
S11304D049030E94090568BD0AC08BE0E816F104CF
S11304E030F0C7010E941D030E94090568BDDF9119
S11304F0CF911F910F91FF90EF900895F8940E946F
S11305008D000E94D6020E94B0010E948B01789453
S1130510089587E690E00E94C8030E947E020E942C
S1130520B2032AEA36EE86E991E021503040804059
S11305309040D9F700000E94D6019F938F938BE1DE
S113054091E09F938F93C2E4D1E0DF93CF930E9415
S11305506507CE010E94DE030E941D020E94EB0289
S11305600E94EE00809141018F93809140018F930E
S11305708BE291E09F938F93DF93CF930E94650763
S1130580CE010E94DE032FEF31EE84E02150304093
S11305908040E1F700C000002DB73EB7245F3F4F15
S11305A00FB6F8943EBF0FBE2DBFC5CFF89487B1E8
S11305B08D7F87B987B18B7F87B984B1806284B915
S11305C085B18F7D85B98AB180688AB98BB18F77FF
S11305D08BB978940895CF92DF92EF92FF9268B529
S11305E070E080E090E00E943A056B017C0167B501
S11305F070E080E090E00E943A0520E030E048E0BE
S113060051E40E94870620E030E048EC52E40E9466
S11306105D049B01AC01C701B6010E945804882304
S113062024F485B1806285B903C085B18F7D85B915
S1130630FF90EF90DF90CF900895CF92DF92EF92EA
S1130640FF92BC0180E090E00E9438052CE030E38A
S113065040E45BE30E9487062AE939E941E151E479
S11306600E94EC036B017C0167B570E080E090E0D0
S11306700E943A05A70196010E94870620E030E017
S113068048EC52E40E945D04FF90EF90DF90CF901D
S11306900895CF92DF92EF92FF92BC0180E090E048
S11306A00E94380520E030E040E054E40E94EB036F
S11306B02FE632E143E05CE30E9487060E94D70400
S11306C020E030E040E85FE30E94EC039B01AC01D2
S11306D062E373E383E390E40E945D0423E333E382
S11306E043EC50E40E94EC036B017C0167B570E0BD
S11306F080E090E00E943A05A70196010E948706D7
S113070020E030E048EC52E40E945D04FF90EF905A
S1130710DF90CF90089567B570E080E090E00E948C
S11307203A0523E333E343EC50E40E94870620E0D8
S113073030E048EC52E40E945D040E94090568BD63
S11307408BB180688BB92FE382E49FE02150804015
S11307509040E1F700C000008BB18F778BB90E9405
S1130760EB02089567B570E080E090E00E943A05DE
S11307702AE939E941E151E40E94870620E030E0AA
S113078048EC52E40E945D040E94090568BD089586
S11307909093C5008093C40088E18093C100E2EC8B
S11307A0F0E086E080838081886080830895909162
S11307B0C00095FFFCCF8093C6000895CF93DF93CC
S11307C0EC0103C00E94D703219688818111FACFDE
S11307D0DF91CF9108955058BB27AA270E940304A4
S11307E00C94D7050E94C90538F00E94D00520F06A
S11307F039F49F3F19F426F40C949F050EF4E09508
S1130800E7FB0C949905E92F0E94E80558F3BA1701
S1130810620773078407950720F079F4A6F50C9412
S11308200A060EF4E0950B2EBA2FA02D0B01B90188
S113083090010C01CA01A0011124FF27591B99F052
S1130840593F50F4503E68F11A16F040A22F232F5E
S1130850342F4427585FF3CF469537952795A795AE
S1130860F0405395C9F77EF41F16BA0B620B730B55
S1130870840BBAF09150A1F0FF0FBB1F661F771FC6
S1130880881FC2F70EC0BA0F621F731F841F48F47B
S1130890879577956795B795F7959E3F08F0B0CF04
S11308A09395880F08F09927EE0F979587950895EB
S11308B00E94750508F481E008950E9471040C9467
S11308C0D7050E94D00558F00E94C90540F029F4CC
S11308D05F3F29F00C94990551110C940B060C946C
S11308E09F050E94E80568F39923B1F3552391F31A
S11308F0951B550BBB27AA2762177307840738F08B
S11309009F5F5F4F220F331F441FAA1FA9F335D0E7
S11309100E2E3AF0E0E832D091505040E695001C9B
S1130920CAF72BD0FE2F29D0660F771F881FBB1F55
S1130930261737074807AB07B0E809F0BB0B802D33
S1130940BF01FF2793585F4F3AF09E3F510578F05F
S11309500C9499050C940B065F3FE4F3983ED4F392
S1130960869577956795B795F7959F5FC9F7880F33
S1130970911D9695879597F90895E1E0660F771F85
S1130980881FBB1F621773078407BA0720F0621B16
S1130990730B840BBA0BEE1F88F7E095089529F4C6
S11309A016F00C9499050C940A060C949F050E9469
S11309B0F005A8F39638A0F707F80F92E8942BE314
S11309C03AEA48EB5FE70E949D060F920F920F925E
S11309D04DB75EB70F920E945306E4EBF0E00E941D
S11309E0A2054F915F91EF91FF91E595EE1FFF1FD7
S11309F049F0FE57E0684427EE0F441FFA95E1F7EB
S1130A004195550B0E941D060F9007FE0C9411068C
S1130A1008950E94F00588F09F5798F0B92F992700
S1130A20B751B0F0E1F0660F771F881F991F1AF0D5
S1130A30BA95C9F714C0B13091F00E940A06B1E02A
S1130A4008950C940A06672F782F8827B85F39F029
S1130A50B93FCCF3869577956795B395D9F73EF46E
S1130A6090958095709561957F4F8F4F9F4F089516
S1130A70E89409C097FB3EF4909580957095619534
S1130A807F4F8F4F9F4F9923A9F0F92F96E9BB27EA
S1130A909395F695879577956795B795F111F8CF66
S1130AA0FAF4BB0F11F460FF1BC06F5F7F4F8F4FD1
S1130AB09F4F16C0882311F096E911C0772321F0C7
S1130AC09EE8872F762F05C0662371F096E8862F5F
S1130AD070E060E02AF09A95660F771F881FDAF7B6
S1130AE0880F9695879597F90895990F0008550FE3
S1130AF0AA0BE0E8FEEF16161706E807F907C0F0A0
S1130B0012161306E407F50798F0621B730B840BA7
S1130B10950B39F40A2661F0232B242B252B21F481
S1130B2008950A2609F4A140A6958FEF811D811D21
S1130B30089597F99F6780E870E060E008959FEF5B
S1130B4080EC0895DF93CF931F930F93FF92EF925E
S1130B50DF927B018C01689406C0DA2EEF010E94BB
S1130B609A06FE01E894A5912591359145915591F8
S1130B70A6F3EF010E940304FE019701A801DA9491
S1130B8069F7DF90EF90FF900F911F91CF91DF9164
S1130B90089500240A9416161706180609060895DF
S1130BA000240A9412161306140605060895092E45
S1130BB00394000C11F4882352F0BB0F40F4BF2BB4
S1130BC011F460FF04C06F5F7F4F8F4F9F4F0895F4
S1130BD057FD9058440F551F59F05F3F71F04795EA
S1130BE0880F97FB991F61F09F3F79F087950895CF
S1130BF0121613061406551FF2CF4695F1DF08C0EE
S1130C00161617061806991FF1CF8695710561050A
S1130C1008940895E894BB2766277727CB0197F9B2
S1130C2008959B01AC0160E070E080E89FE30C94C0
S1130C305D040C9499050C94F4060E94F005D8F315
S1130C409923C9F3940F511DA3F39150504094F08C
S1130C5059F0882332F0660F771F881F9150504057
S1130C60C1F79E3F51052CF7880F911D96958795E6
S1130C7097F908955F3FACF0983E9CF0BB278695AA
S1130C8077956795B79508F4B1609395C1F7BB0F55
S1130C9058F711F460FFE8CF6F5F7F4F8F4F9F4F7E
S1130CA0E3CF0C940B06FA01DC01AA0FBB1F9B01D6
S1130CB0AC01BF5728F4222733274427507820C09B
S1130CC0B75190F4AB2F0024469537952795011C16
S1130CD0A395D2F3002071F0220F331F441FB39564
S1130CE0DAF30ED00C94EB0361307105A0E88A07A7
S1130CF0B94630F49B01AC016627772788279078A2
S1130D00309621F0208331834283538308950E94D7
S1130D109A060C94D7050E94C90538F00E94D005A4
S1130D2020F0952311F00C9499050C949F0511243F
S1130D300C940B060E94E80570F3959FC1F3950F80
S1130D4050E0551F629FF001729FBB27F00DB11D4B
S1130D50639FAA27F00DB11DAA1F649F6627B00DDB
S1130D60A11D661F829F2227B00DA11D621F739FC4
S1130D70B00DA11D621F839FA00D611D221F749FD2
S1130D803327A00D611D231F849F600D211D822F19
S1130D90762F6A2F11249F5750409AF0F1F0882340
S1130DA04AF0EE0FFF1FBB1F661F771F881F91506D
S1130DB05040A9F79E3F510580F00C9499050C947E
S1130DC00B065F3FE4F3983ED4F3869577956795D9
S1130DD0B795F795E7959F5FC1F7FE2B880F911D97
S1130DE09695879597F908959F3F31F0915020F497
S1130DF0879577956795B795880F911D96958795F3
S1130E0097F90895052E97FB1EF400940E94190784
S1130E1057FD07D00E94290707FC03D04EF40C9419
S1130E20190750954095309521953F4F4F4F5F4F8F
S1130E30089590958095709561957F4F8F4F9F4F42
S1130E400895B7FF0C944B070E944B07821B930B2A
S1130E500895A1E21A2EAA1BBB1BFD010DC0AA1FF7
S1130E60BB1FEE1FFF1FA217B307E407F50720F00F
S1130E70A21BB30BE40BF50B661F771F881F991F8A
S1130E801A9469F760957095809590959B01AC01D3
S1130E90BD01CF0108950E945607A59F900DB49FF0
S1130EA0900DA49F800D911D11240895A29FB0015F
S1130EB0B39FC001A39F700D811D1124911DB29F8A
S1130EC0700D811D1124911D0895AEE0B0E0EBE694
S1130ED0F7E00C94260A0D891E8986E08C831A8318
S1130EE009838FEF9FE79E838D83AE01475E5F4F3B
S1130EF06F89788DCE0101960E948707EF81F8856E
S1130F00E00FF11F10822E96E4E00C94420AABE04D
S1130F10B0E0EDE8F7E00C94180A6C017B018A015B
S1130F20FC0117821682838181FFCCC1CE01019618
S1130F303C01F6019381F70193FD859193FF819123
S1130F407F01882309F4BAC1853239F493FD859170
S1130F5093FF81917F01853229F4B60190E00E94CC
S1130F607E09E7CF912C212C312CFFE1F315D8F029
S1130F708B3279F038F4803279F08332A1F4232D66
S1130F8020611DC08D3261F0803369F4232D21600E
S1130F9016C0832D8260382EE32DE4603E2E2AC0D5
S1130FA0F32DF8601DC037FC2DC020ED280F2A302A
S1130FB040F08E32B9F436FC81C1232D2064322EE8
S1130FC019C036FE06C08AE0989E200D1124922E88
S1130FD011C0EAE02E9E200D1124222EF32DF06282
S1130FE03F2E08C08C3621F4832D8068382E02C031
S1130FF0883641F4F70193FD859193FF81917F0138
S11310008111B3CF982F9F7D9554933028F40C5FB2
S11310101F4F9FE399830DC0833631F0833771F0FE
S1131020833509F059C021C0F801808189830E5F9E
S11310301F4F88248394912C530113C02801F2E09C
S11310404F0E511CF801A080B18036FE03C0692DFB
S113105070E002C06FEF7FEFC5010E9473094C017D
S11310608201F32DFF773F2E16C0280122E0420EA5
S1131070511CF801A080B18036FE03C0692D70E0D8
S113108002C06FEF7FEFC5010E9468094C01F32D88
S1131090F0683F2E820133FC1BC0822D90E088163D
S11310A09906B0F4B60180E290E00E947E092A9489
S11310B0F4CFF50137FC859137FE81915F01B601CC
S11310C090E00E947E0921102A9421E0821A91085E
S11310D08114910471F7E8C0843611F0893641F522
S11310E0F80137FE07C060817181828193810C5FB2
S11310F01F4F08C060817181072E000C880B990B6B
S11311000E5F1F4FF32DFF763F2E97FF09C090957A
S11311108095709561957F4F8F4F9F4FF0683F2E5C
S11311202AE030E0A3010E94BA09882E861845C03F
S1131130853731F4232D2F7EB22E2AE030E025C0EE
S1131140932D997FB92E8F36C1F018F4883579F034
S1131150B5C0803719F0883721F0B0C0E92FE061BD
S1131160BE2EB4FE0DC0FB2DF460BF2E09C034FEAC
S11311700AC0292F2660B22E06C028E030E005C040
S113118020E130E002C020E132E0F801B7FE07C000
S113119060817181828193810C5F1F4F06C06081E1
S11311A0718180E090E00E5F1F4FA3010E94BA0995
S11311B0882E8618FB2DFF773F2E36FE0DC0232D7B
S11311C02E7FA22E891458F434FE0BC032FC09C0C1
S11311D0832D8E7EA82E05C0B82CA32C03C0B82C5A
S11311E001C0B92CA4FE0FC0FE01E80DF11D8081E1
S11311F0803321F49A2D997EA92E09C0A2FE06C03F
S1131200B394B39404C08A2D867809F0B394A3FCF4
S113121011C0A0FE06C0B21488F4280C922C9B18AE
S11312200EC0B21460F4B60180E290E00E947E0920
S1131230B394F7CFB21418F42B1802C0982C212CB5
S1131240A4FE10C0B60180E390E00E947E09A2FED5
S113125017C0A1FC03C088E790E002C088E590E0D5
S1131260B6010CC08A2D867859F0A1FE02C08BE22B
S113127001C080E2A7FC8DE2B60190E00E947E09E5
S1131280891438F4B60180E390E00E947E099A94B0
S1131290F7CF8A94F301E80DF11D8081B60190E047
S11312A00E947E098110F5CF222009F442CEB601B6
S11312B080E290E00E947E092A94F6CFF6018681AE
S11312C0978102C08FEF9FEF2B96E2E10C94340AD2
S11312D0FC010590615070400110D8F780959095FD
S11312E08E0F9F1F0895FC01615070400190011002
S11312F0D8F7809590958E0F9F1F08950F931F9395
S1131300CF93DF93FB01238121FD03C08FEF9FEF78
S11313102CC022FF16C04681578124813581421793
S1131320530744F4A081B1819D012F5F3F4F318366
S113133020838C93268137812F5F3F4F3783268309
S113134014C08B01EC01FB010084F185E02D0995AB
S1131350892BE1F6D80116968D919C9117970196E9
S113136017969C938E931697CE01DF91CF911F9180
S11313700F910895FA01AA27283051F1203181F103
S1131380E8946F936E7F6E5F7F4F8F4F9F4FAF4F89
S1131390B1E03ED0B4E03CD0670F781F891F9A1F9C
S11313A0A11D680F791F8A1F911DA11D6A0F711D50
S11313B0811D911DA11D20D009F468943F912AE05C
S11313C0269F11243019305D3193DEF6CF01089544
S11313D0462F4770405D4193B3E00FD0C9F7F6CF75
S11313E0462F4F70405D4A3318F0495D31FD40523D
S11313F0419302D0A9F7EACFB4E0A69597958795D3
S113140077956795BA95C9F70097610571050895B1
S11314109B01AC010A2E069457954795379527955D
S1131420BA95C9F7620F731F841F951FA01D0895F5
S11314302F923F924F925F926F927F928F929F92E0
S1131440AF92BF92CF92DF92EF92FF920F931F93CE
S1131450CF93DF93CDB7DEB7CA1BDB0B0FB6F8947F
S1131460DEBF0FBECDBF09942A88398848885F84BF
S11314706E847D848C849B84AA84B984C884DF8030
S1131480EE80FD800C811B81AA81B981CE0FD11D14
S11314900FB6F894DEBF0FBECDBFED010895F894EA
S10514A0FFCF78
S11314A256524F4F4F4D4D3A202564200A00535453
S11314B24F5050503A202564200A006C69676874C2
S11314C2204144433A202564200A0064697374610C
S10D14D26E63653A202564200A00C9
S903013CBF
